{
  "contractName": "Escrow",
  "abi": [
    {
      "inputs": [],
      "stateMutability": "nonpayable",
      "type": "constructor"
    },
    {
      "anonymous": false,
      "inputs": [
        {
          "indexed": true,
          "internalType": "address",
          "name": "_from",
          "type": "address"
        }
      ],
      "name": "Approved",
      "type": "event"
    },
    {
      "anonymous": false,
      "inputs": [
        {
          "indexed": true,
          "internalType": "address",
          "name": "_from",
          "type": "address"
        },
        {
          "indexed": false,
          "internalType": "uint256",
          "name": "_value",
          "type": "uint256"
        }
      ],
      "name": "Paid",
      "type": "event"
    },
    {
      "inputs": [],
      "name": "agent",
      "outputs": [
        {
          "internalType": "address",
          "name": "",
          "type": "address"
        }
      ],
      "stateMutability": "view",
      "type": "function"
    },
    {
      "inputs": [],
      "name": "buyer",
      "outputs": [
        {
          "internalType": "address",
          "name": "",
          "type": "address"
        }
      ],
      "stateMutability": "view",
      "type": "function"
    },
    {
      "inputs": [],
      "name": "landlord",
      "outputs": [
        {
          "internalType": "address payable",
          "name": "",
          "type": "address"
        }
      ],
      "stateMutability": "view",
      "type": "function"
    },
    {
      "inputs": [
        {
          "internalType": "address payable",
          "name": "_landlord",
          "type": "address"
        }
      ],
      "name": "addLandlord",
      "outputs": [],
      "stateMutability": "nonpayable",
      "type": "function"
    },
    {
      "inputs": [
        {
          "internalType": "address",
          "name": "_buyer",
          "type": "address"
        }
      ],
      "name": "addBuyer",
      "outputs": [],
      "stateMutability": "nonpayable",
      "type": "function"
    },
    {
      "inputs": [],
      "name": "landlordAddress",
      "outputs": [
        {
          "internalType": "address",
          "name": "",
          "type": "address"
        }
      ],
      "stateMutability": "view",
      "type": "function"
    },
    {
      "inputs": [],
      "name": "agentAddress",
      "outputs": [
        {
          "internalType": "address",
          "name": "",
          "type": "address"
        }
      ],
      "stateMutability": "view",
      "type": "function"
    },
    {
      "inputs": [],
      "name": "contractBalance",
      "outputs": [
        {
          "internalType": "uint256",
          "name": "",
          "type": "uint256"
        }
      ],
      "stateMutability": "view",
      "type": "function"
    },
    {
      "inputs": [],
      "name": "depositEther",
      "outputs": [],
      "stateMutability": "payable",
      "type": "function"
    },
    {
      "inputs": [],
      "name": "approve",
      "outputs": [],
      "stateMutability": "nonpayable",
      "type": "function"
    }
  ],
  "bytecode": "0x608060405234801561001057600080fd5b5033600260006101000a81548173ffffffffffffffffffffffffffffffffffffffff021916908373ffffffffffffffffffffffffffffffffffffffff160217905550610822806100616000396000f3fe6080604052600436106100915760003560e01c80638b7afe2e116100595780638b7afe2e1461015757806398ea5fca14610182578063bbf898031461018c578063dc1997ea146101b5578063f5ff5c76146101e057610091565b806301c9a2591461009657806302d8db08146100bf57806312424e3f146100ea57806338613690146101015780637150d8ae1461012c575b600080fd5b3480156100a257600080fd5b506100bd60048036038101906100b891906105e3565b61020b565b005b3480156100cb57600080fd5b506100d461024f565b6040516100e19190610631565b60405180910390f35b3480156100f657600080fd5b506100ff610279565b005b34801561010d57600080fd5b506101166103bd565b6040516101239190610631565b60405180910390f35b34801561013857600080fd5b506101416103e7565b60405161014e9190610631565b60405180910390f35b34801561016357600080fd5b5061016c61040b565b6040516101799190610665565b60405180910390f35b61018a610413565b005b34801561019857600080fd5b506101b360048036038101906101ae91906106ac565b6104f1565b005b3480156101c157600080fd5b506101ca610534565b6040516101d791906106e8565b60405180910390f35b3480156101ec57600080fd5b506101f561055a565b6040516102029190610631565b60405180910390f35b80600160006101000a81548173ffffffffffffffffffffffffffffffffffffffff021916908373ffffffffffffffffffffffffffffffffffffffff16021790555050565b6000600160009054906101000a900473ffffffffffffffffffffffffffffffffffffffff16905090565b600260009054906101000a900473ffffffffffffffffffffffffffffffffffffffff1673ffffffffffffffffffffffffffffffffffffffff163373ffffffffffffffffffffffffffffffffffffffff1614610309576040517f08c379a000000000000000000000000000000000000000000000000000000000815260040161030090610760565b60405180910390fd5b3373ffffffffffffffffffffffffffffffffffffffff167f5d91bd0cecc45fef102af61de92c5462fadc884a5ce9d21c15e8a85198f2349e60405160405180910390a26000479050600160009054906101000a900473ffffffffffffffffffffffffffffffffffffffff1673ffffffffffffffffffffffffffffffffffffffff166108fc829081150290604051600060405180830381858888f193505050501580156103b9573d6000803e3d6000fd5b5050565b6000600260009054906101000a900473ffffffffffffffffffffffffffffffffffffffff16905090565b60008054906101000a900473ffffffffffffffffffffffffffffffffffffffff1681565b600047905090565b60008054906101000a900473ffffffffffffffffffffffffffffffffffffffff1673ffffffffffffffffffffffffffffffffffffffff163373ffffffffffffffffffffffffffffffffffffffff16146104a1576040517f08c379a0000000000000000000000000000000000000000000000000000000008152600401610498906107cc565b60405180910390fd5b3373ffffffffffffffffffffffffffffffffffffffff167f737c69225d647e5994eab1a6c301bf6d9232beb2759ae1e27a8966b4732bc489346040516104e79190610665565b60405180910390a2565b806000806101000a81548173ffffffffffffffffffffffffffffffffffffffff021916908373ffffffffffffffffffffffffffffffffffffffff16021790555050565b600160009054906101000a900473ffffffffffffffffffffffffffffffffffffffff1681565b600260009054906101000a900473ffffffffffffffffffffffffffffffffffffffff1681565b600080fd5b600073ffffffffffffffffffffffffffffffffffffffff82169050919050565b60006105b082610585565b9050919050565b6105c0816105a5565b81146105cb57600080fd5b50565b6000813590506105dd816105b7565b92915050565b6000602082840312156105f9576105f8610580565b5b6000610607848285016105ce565b91505092915050565b600061061b82610585565b9050919050565b61062b81610610565b82525050565b60006020820190506106466000830184610622565b92915050565b6000819050919050565b61065f8161064c565b82525050565b600060208201905061067a6000830184610656565b92915050565b61068981610610565b811461069457600080fd5b50565b6000813590506106a681610680565b92915050565b6000602082840312156106c2576106c1610580565b5b60006106d084828501610697565b91505092915050565b6106e2816105a5565b82525050565b60006020820190506106fd60008301846106d9565b92915050565b600082825260208201905092915050565b7f4f6e6c79206167656e742063616e2063616c6c2074686973206d6574686f6400600082015250565b600061074a601f83610703565b915061075582610714565b602082019050919050565b600060208201905081810360008301526107798161073d565b9050919050565b7f4f6e6c792062757965722063616e2063616c6c2074686973206d6574686f6400600082015250565b60006107b6601f83610703565b91506107c182610780565b602082019050919050565b600060208201905081810360008301526107e5816107a9565b905091905056fea2646970667358221220e7cad01560cf713adbd301eb7a5c73b26077f12013e279d07efc0103de89944d64736f6c634300080a0033",
  "immutableReferences": {},
  "source": "// SPDX-License-Identifier: MIT\r\npragma solidity >=0.8.6;\r\n\r\ncontract Escrow {\r\n    address public buyer;\r\n    address payable public landlord;\r\n    address public agent;\r\n    \r\n    // @notice Logs the address of the sender and amounts paid to the contract\r\n    event Paid(address indexed _from, uint _value);\r\n    // @notice Logs the approval\r\n    event Approved(address indexed _from);\r\n\r\n    modifier onlyDepositor() {\r\n        require(msg.sender == buyer, \"Only buyer can call this method\");\r\n        _;\r\n    }\r\n\r\n    modifier onlyAgent() {\r\n        require(msg.sender == agent, \"Only agent can call this method\");\r\n        _;\r\n    }\r\n\r\n    constructor() {\r\n        agent = msg.sender;\r\n    }\r\n\r\n    function addLandlord(address payable _landlord) public {\r\n        landlord = _landlord;\r\n    }\r\n\r\n    function addBuyer(address _buyer) external{\r\n        buyer = _buyer;\r\n    }\r\n\r\n    function landlordAddress() external view returns (address){\r\n        return landlord;\r\n    }\r\n\r\n    function agentAddress() external view returns (address){\r\n        return agent;\r\n    }\r\n\r\n    function contractBalance() public view returns(uint256) {\r\n    return address(this).balance;\r\n    }\r\n\r\n    function depositEther() external payable onlyDepositor {\r\n        emit Paid(msg.sender, msg.value);\r\n    }\r\n\r\n    function approve() public onlyAgent {\r\n        emit Approved(msg.sender);\r\n        uint256 balance = address(this).balance;\r\n        landlord.transfer(balance);\r\n    }\r\n}",
  "sourcePath": "C:\\Users\\Dell latitude 5470\\Documents\\Files\\Distri. Systems\\project\\pract\\contracts\\Escrow.sol",
  "compiler": {
    "name": "solc",
    "version": "0.8.10+commit.fc410830.Emscripten.clang"
  },
  "schemaVersion": "3.4.3",
  "updatedAt": "2021-11-22T20:28:05.037Z",
  "devdoc": {
    "kind": "dev",
    "methods": {},
    "version": 1
  },
  "userdoc": {
    "kind": "user",
    "methods": {},
    "version": 1
  }
}